:100000000C944A0E0C947B0E0C947B0E0C947B0E7D
:100010000C947B0E0C947B0E0C947B0E0C947B0E3C
:100020000C947B0E0C947B0E0C947B0E0C947B0E2C
:100030000C947B0E0C947B0E0C947B0E0C947B0E1C
:100040000C947B0E0C94567A0C947B0E0C947B0EC5
:100050000C947B0E0C947B0E0C94266C0C948B6889
:100060000C947B0E0C9443660C9439660C947B0EB6
:100070000C947B0E0C947B0E0C947B0E0C947B0EDC
:100080000C947B0E0C947B0E0C947B0E0C947B0ECC
:100090000C947B0E0C947B0E0C947B0E0C947B0EBC
:1000A0000C947B0E0C947B0E0C947B0E0C947B0EAC
:1000B0000C947B0E0C947B0E0C947B0E0C947B0E9C
:1000C0000C947B0E0C947B0E0C947B0E0C947B0E8C
:1000D0000C947B0E0C947B0E0C947B0E0C947B0E7C
:1000E0000C947B0E88668B667A667E668466C26632
:1000F0008F66936699669D66A166A766AB66AF66D6
:10010000C266B566B966BD66A567AA67AF67B96717
:10011000C3673C68CD67D567DD67E767F167FB6755
:100120000A6814683C681E6828683268084AD73B29
:100130003BCE016E84BCBFFDC12F3D6C74319ABDB6
:1001400056833DDA3D00C77F11BED9E4BB4C3E91DA
:100150006BAAAABE000000803F05A84CCDB2D44EC9
:10016000B93836A9020C50B9918688083CA6AAAACB
:100170002ABE000000803F000C949D660C941E680F
:100180000C9428680C94A7660C943C680C948466C4
:100190000C9493660C94DD670C9432680C94B967E8
:1001A0000C94B5660C94D5670C94BD660C948F6660
:1001B0000C94C3670C94F1670C94AF670C94AF6612
:1001C0000C947E660C94A5670C947A660C946885F2
:1001D0000C940A680C94E7670C9499660C94CD67AC
:1001E0000C948B660C94AB660C94FB670C9488663D
:1001F0000C9414680C94B9660C94AA670C94A166CC
:100200000C94C2664E414E494E495459494E46CD12
:10021000CCCC3D0AD7233C17B7D13877CC2B3295BD
:1002200095E6241FB14F0A000020410000C842009B
:10023000401C4620BCBE4CCA1B0E5AAEC59D740065
:100240000000C00000A0C000000000FFFFFF790216
:1002500074026D0266025802434F4D4D554E49439C
:100260004154494F4E0044525952554E0045525246
:100270004F525300494E464F004543484F006F6B65
:10028000002028302D313029002076616C756520E2
:100290006F7574206F662072616E676500416476C9
:1002A000616E6365204B3D003F5A206F7574206F6F
:1002B000662072616E67652028003F59206F757453
:1002C000206F662072616E676520282D0020746F94
:1002D00020003F58206F7574206F662072616E6732
:1002E0006520282D0050726F6265204F6666736529
:1002F00074205800454550524F4D204F4B0A00483E
:100300006F6D65202573257325732046697273749C
:1003100000546F6F206661722066726F6D20726587
:10032000666572656E636520706F696E740A00643D
:1003300069730043290A0061626C656420286D6955
:100340006E2074656D702000436F6C642065787456
:100350007275646573206172652000496E76616C08
:1003600069642065787472756465720A0020643A65
:100370000020693A0020703A0050726F6265204F89
:100380006666736574205A0050726F6265204F660E
:10039000667365745A3A200020466C6F773A2000E5
:1003A00046523A0020590020204D61783A20002022
:1003B000204D696E3A2000536F667420656E647339
:1003C000746F70733A20003F4A206F7574206F6617
:1003D0002072616E67652028302E303120746F20C6
:1003E000302E33290A0020540020520041636365F7
:1003F0006C65726174696F6E3A2050002F2F200077
:100400004348414D4245525F54454D504552415439
:10041000555245004D4F54494F4E5F4D4F44455343
:1004200000544845524D414C5F50524F544543543F
:10043000494F4E004155544F5245504F52545F530F
:10044000445F5354415455530050524F4D50545FE4
:10045000535550504F525400454D455247454E4319
:10046000595F50415253455200434153455F4C49F7
:100470004748545F4252494748544E4553530054ED
:100480004F47474C455F4C494748545300534F46EC
:1004900054574152455F504F574552004255494CC1
:1004A000445F50455243454E54004C4556454C49D7
:1004B0004E475F44415441005A5F50524F424500FD
:1004C0004155544F4C4556454C005052494E545F8F
:1004D0004A4F420050524F475245535300415554E2
:1004E0004F5245504F52545F54454D5000564F4C5B
:1004F000554D455452494300454550524F4D0042D9
:10050000494E4152595F46494C455F5452414E5302
:100510004645520053455249414C5F584F4E5F5833
:100520004F4646004649524D574152455F4E414D58
:10053000453A4D61726C696E20322E302E352E3365
:1005400020284769744875622920534F5552434506
:100550005F434F44455F55524C3A68747470733A28
:100560002F2F6769746875622E636F6D2F4D6172EE
:100570006C696E4669726D776172652F4D61726C40
:10058000696E2050524F544F434F4C5F5645525363
:10059000494F4E3A312E30204D414348494E455F38
:1005A000545950453A417274696C6C6572792047B0
:1005B000656E6975732045585452554445525F43E2
:1005C0004F554E543A3120555549443A6365646558
:1005D000326132662D343161322D343734382D3961
:1005E0006231322D633535633632663336376666AF
:1005F0000A004D3131332053004D313132205368E0
:100600007574646F776E006F6666004445425547A7
:100610003A0020573A0050726F7465637465642025
:1006200050696E0A00496E76616C69642050696E8B
:10063000204D6F64650A00256979202569642025AD
:1006400069682025696D20256973005072696E7490
:100650002074696D653A200050726F62696E672080
:100660004661696C65640A00205A3A200020593AB4
:10067000200042656420583A20005A2050726F6270
:10068000652050617374204265640A00486F6D658F
:100690002058592066697273740A0024F4D43050CB
:1006A000C38E20C2A24017828B7011127A910D81E5
:1006B0006CD90AA861E108C7586607615143061E54
:1006C0004B5D05C145A7041A411104093D9803710A
:1006D0003931034036DB0265339102D43054028055
:1006E0002E1D02632CEE01752AC501B028A0011051
:1006F0002781018F2564012B244B01E0223401ACBA
:10070000211F018D200D01801FFC00841EED00972C
:100710001DDF00B81CD200E61BC600201BBC006415
:100720001AB200B219A8000A19A0006A189900D1DB
:1007300017910040178B00B516840031167E00B368
:100740001579003A157300C7146F0058146A00EE4B
:100750001366008813630025135E00C7125B006CEC
:1007600012570015125400C111510070114F002191
:10077000114B00D61049008D10470046104400026E
:10078000104200C00F4000800F3E00420F3C0006A8
:100790000F3B00CB0E3800930E37005C0E35002760
:1007A0000E3400F30D3200C10D3100900D300060A9
:1007B0000D2E00320D2D00050D2C00D90C2B00AE96
:1007C0000C2900850C29005C0C2700350C27000E35
:1007D0000C2600E80B2400C40B2400A00B23007D92
:1007E0000B23005A0B2100390B2100180B2000F8B5
:1007F0000A1F00D90A1E00BB0A1E009D0A1D0080A8
:100800000A1D00630A1C00470A1B002C0A1B00116A
:100810000A1A00F7091A00DD091900C4091900AB0A
:10082000091900920917007B091800630917004C89
:1008300009160036091600200916000A091500F5E8
:10084000081500E0081400CC081400B8081400A42F
:10085000081400900813007D0812006B081300585C
:100860000812004608120034081100230811001273
:1008700008110001081100F0071000E0071000D077
:10088000071000C0071000B0070F00A1071000916B
:10089000070E0083070F0074070F0065070E00574F
:1008A000070E0049070E003B070D002E070E002023
:1008B000070D0013070D0006070D00F9060C00EDEB
:1008C000060D00E0060C00D4060C00C8060C00BCA7
:1008D000060C00B0060C00A4060B0099060C008D57
:1008E000060B0082060B0077060B006C060B0061FE
:1008F000060A0057060B004C060A0042060A00389A
:10090000060A002E060A0024060A001A060A00102B
:1009100006090007060A00FD050900F4050900EBB9
:10092000050900E2050900D9050900D0050900C73D
:10093000050900BE050900B5050800AD050800A5BC
:100940000509009C050800940508008C0508008432
:100950000508007C050800740508006C05070065A3
:100960000508005D050700560508004E050700470D
:100970000507004005080038050700310507002A73
:10098000050700230507001C050600160507000FD4
:100990000507000805060002050700FB040600F530
:1009A000040700EE040600E8040600E2040700DB8A
:1009B000040600D5040600CF040600C9040600C3DF
:1009C000040600BD040600B7040600B1040500AC2F
:1009D000040600A6040600A00405009B040600957A
:1009E000040500900406008A0405008504050080C3
:1009F0000406007A04050075040500700405006B08
:100A000004050066040500610405005C0405005748
:100A1000040500520405004D040500480405004388
:100A20000405003E0404003A0405003504050030C6
:100A30000404002C04050027040400230405001E00
:100A40000404001A04040016040500110404000D37
:100A5000040400090405000404040000040400FC6C
:100A6000030400F8030400F4030400F0030400ECA2
:100A7000030400E8030400E4030400E0030400DCD2
:100A8000030400D8030400D4030400D0030400CC02
:100A9000030400C8030300C503030024F404D920A1
:100AA0001BC40C5C0E9804C4095F0265077101F455
:100AB00005F900FB04B30048048700C1036900582E
:100AC00003550003034500BE023A0084023100537F
:100AD000022A002902250004022000E4011C00C8AB
:100AE000011900AF0117009801140084011300716F
:100AF0000110006101100051010E0043010D00368C
:100B0000010B002B010B0020010B00150109000C4B
:100B100001090003010800FB000800F3000800EBD6
:100B2000000700E4000600DE000600D8000600D240
:100B3000000600CC000500C7000500C2000500BD8E
:100B4000000400B9000400B5000400B1000400ADC9
:100B5000000400A9000400A5000300A20003009FF8
:100B60000004009B0003009800030095000200931E
:100B7000000300900003008D0002008B000300883A
:100B80000002008600020084000300810002007F52
:100B90000002007D0002007B000200790002007765
:100BA0000001007600020074000200720001007172
:100BB0000002006F0002006D0001006C0002006A7C
:100BC0000001006900020067000100660001006585
:100BD0000001006400020062000100610001006089
:100BE0000001005F0002005D0001005C0001005B8D
:100BF0000001005A0001005900010058000100578F
:100C0000000100560001005500010054000100538E
:100C1000000000530001005200010051000100508B
:100C20000001004F0001004E0000004E0001004D89
:100C30000001004C0001004B0000004B0001004A85
:100C40000001004900010048000000480001004781
:100C5000000100460000004600010045000000457C
:100C60000001004400010043000000430001004275
:100C7000000000420001004100000041000100406E
:100C80000001003F0000003F0001003E0000003E68
:100C90000001003D0000003D0001003C0000003C60
:100CA0000000003C0001003B0000003B0001003A56
:100CB0000000003A0001003900000039000100384E
:100CC0000000003800000038000100370000003745
:100CD000000100360000003600000036000100353B
:100CE0000000003500000035000100340000003431
:100CF0000000003400010033000000330000003326
:100D0000000100320000003200000032000100311A
:100D10000000003100000031000100300000003010
:100D2000000000300001002F0000002F0000002F05
:100D30000000002F0001002E0000002E0000002EF9
:100D40000001002D0000002D0000002D0000002DEE
:100D50000001002C0000002C0000002C0000002CE2
:100D60000001002B0000002B0000002B0000002BD6
:100D70000001002A0000002A0000002A0000002ACA
:100D800000010029000000290000002900000029BE
:100D900000000029000100280000002800000028B1
:100DA00000000028000000280001002700000027A4
:100DB0000000002700000027000000270001002697
:100DC000000000260000002600000026000000268B
:100DD000000100250000002500000025000000257E
:100DE0000000002500000025000100240000002470
:100DF0000000002400000024000000240001002363
:100E00000000002300000023000000230000002356
:100E10000000002300000023000100220000002247
:100E2000000000220000002200000022000000223A
:100E3000000100210000002100000021000000212D
:100E4000000000210000002100000021000100201E
:100E50000000002000000020000000200000002012
:100E60000000002000000020000000200001001F02
:100E70000000001F0000001F0000001F0000001FF6
:100E80000000001F0000001F0001001E0000001EE7
:100E90000000001E0000001E000000232C0000B80F
:100EA000220000561800003A0F0000B8080000B1F8
:100EB000040000710200003E010000204D39322084
:100EC000580020496E76616C69642065787472758B
:100ED00064657220004361703A0047322F47332027
:100EE00062616420706172616D65746572730A007D
:100EF00020746F6F206C6F6E6720657874727573E5
:100F0000696F6E2070726576656E7465640A002084
:100F1000636F6C6420657874727573696F6E20708E
:100F2000726576656E7465640A00526573656E64F9
:100F30003A200023646566696E6520444546415544
:100F40004C545F004B6420004B6920004B70200024
:100F5000504944204175746F74756E652066696EE2
:100F60006973686564212050757420746865206C0D
:100F7000617374204B702C204B6920616E64204B90
:100F80006420636F6E7374616E74732066726F6D2C
:100F90002062656C6F7720696E746F20436F6E6698
:100FA000696775726174696F6E2E680A00504944F2
:100FB000204175746F74756E65206661696C656437
:100FC000212074696D656F75740A000A20436C6195
:100FD0007373696320504944200A00204B643A200F
:100FE00000204B693A2000204B703A2000205475B5
:100FF0003A2000204B753A2000206D61783A20009D
:10100000206D696E3A200020643A200020626961F8
:10101000733A2000504944204175746F74756E65B1
:101020002073746172740A00504944204175746FD2
:1010300074756E65206661696C6564212054656D08
:10104000706572617475726520746F6F206869676E
:10105000680A00504944204175746F74756E6520AC
:101060006661696C656421204261642065787472F0
:1010700075646572206E756D6265720A00536574E1
:1010800074696E67732053746F7265642028000062
:10109000005C4300005C4300007A43206279746581
:1010A000733B2063726320004E6F20454550524FC2
:1010B0004D2E0A00454550524F4D206461746173B6
:1010C000697A65206572726F722E0A002073746FE0
:1010D0007265642073657474696E677320726574D9
:1010E000726965766564202800202863616C6375E9
:1010F0006C6174656429210A0020213D200045456A
:1011000050524F4D20435243206D69736D6174639B
:1011100068202D202873746F726564292000205385
:10112000697A653A2000496E6465783A2000204D5E
:1011300061726C696E3D563736290A00454550523A
:101140004F4D2076657273696F6E206D69736D61A6
:101150007463682028454550524F4D3D00486172E8
:1011600064636F6465642044656661756C742053C4
:10117000657474696E6773204C6F616465640A00FE
:101180003B20003A0A0020204D393030204B004CE3
:10119000696E65617220416476616E63653A002014
:1011A000204D3835312058005A2D50726F6265201D
:1011B0004F66667365740020490020204D3330313E
:1011C0002050005049442073657474696E67733A07
:1011D0000020204D323036205800486F6D65206F5A
:1011E00066667365743A00204A0020204D3230351F
:1011F000204200416476616E6365643A20423C6D32
:10120000696E5F7365676D656E745F74696D655F48
:1012100075733E20533C6D696E5F666565647261EF
:1012200074653E20543C6D696E5F74726176656CC6
:101230005F66656564726174653E204A3C6A756EDE
:10124000635F6465763E0020204D323034205000CC
:10125000416363656C65726174696F6E2028756E99
:101260006974732F7332293A20503C7072696E741E
:101270005F616363656C3E20523C726574726163AA
:10128000745F616363656C3E20543C747261766583
:101290006C5F616363656C3E0020204D323031200D
:1012A00058004D6178696D756D20416363656C65AB
:1012B000726174696F6E2028756E6974732F733252
:1012C000293A0020450020204D3230332058004D6F
:1012D0006178696D756D20666565647261746573AA
:1012E0002028756E6974732F73293A0053746570E2
:1012F000732070657220756E69743A0020204D323B
:1013000030302044300A0020204D3230302044005C
:101310002044697361626C65640A0046696C616DA2
:10132000656E742073657474696E67733A00202863
:101330006D6D29002020473231202020203B205590
:101340006E69747320696E206D6D00000096430015
:101350000096430000484200002042F43DA042F4C1
:101360003DA04296E3C7430080E3432003000020F2
:1013700003000064000000881300004572726F7261
:101380002077726974696E6720746F2045455052EA
:101390004F4D210A00627573793A2070617573654B
:1013A0006420666F7220696E7075740A00627573CE
:1013B000793A2070617573656420666F7220757369
:1013C00065720A00627573793A2070726F63657393
:1013D00073696E670A002121204B494C4C206361E0
:1013E0007573656420627920746F6F206D75636812
:1013F00020696E6163746976652074696D65202D5E
:101400002063757272656E7420636F6D6D616E64BA
:101410003A20005072696E7465722073746F707038
:1014200065642064756520746F206572726F7273D5
:101430002E2046697820746865206572726F72206C
:10144000616E6420757365204D39393920746F20C1
:10145000726573746172742E202854656D706572A4
:1014600061747572652069732072657365742E20CE
:1014700053657420697420616674657220726573A7
:1014800074617274696E67290A004E6F2043686543
:10149000636B73756D2077697468206C696E652065
:1014A0006E756D6265722C204C617374204C696E90
:1014B000653A2000636865636B73756D206D6973B1
:1014C0006D617463682C204C617374204C696E6587
:1014D0003A20004C696E65204E756D626572206918
:1014E00073206E6F74204C617374204C696E65209C
:1014F0004E756D6265722B312C204C617374204CDB
:10150000696E653A20004D313130005072696E7459
:1015100065722068616C7465642E206B696C6C2840
:10152000292063616C6C6564210A006563686F3A09
:10153000004572726F723A00363726033C3D380E12
:101540002E303E1224221E1A1C1808440A07430893
:10155000090700012020506C616E6E65724275664D
:1015600066657242797465733A200020467265653B
:10157000204D656D6F72793A2000436F6D70696C14
:1015800065643A2041707220203620323032300AB1
:1015900000204C61737420557064617465643A2056
:1015A000323032302D30332D3331207C2041757470
:1015B000686F723A20475A450A00322E302E352E77
:1015C000330A004D61726C696E0020536F66747748
:1015D0006172652052657365740A002057617463F7
:1015E00068646F672052657365740A002042726FE9
:1015F000776E206F75742052657365740A002045FC
:10160000787465726E616C2052657365740A00505F
:101610006F77657255700A00656E6473746F7073CE
:10162000206869743A200000002100240027002A65
:10163000002D003000330001010000040107010A01
:101640000100002200250028002B002E003100346C
:101650000002010000050108010B01000020002329
:1016600000260029002C002F00320000010000039A
:101670000106010901050505050705080808080216
:101680000202020A0A08080404040401010101011B
:101690000101010303030303030303040707070C0A
:1016A0000C0C0C0C0C0C0C020202020606060606C0
:1016B0000606060B0B0B0B0B0B0B0B01021020206D
:1016C0000808102040102040800201020108040296
:1016D000010102040810204080804020100804020C
:1016E0000180040201804020100804020108040265
:1016F000010102040810204080010204081020406B
:101700008000000A0B02090C0D0E080703040100FB
:1017100000000000000000000000000000000000C9
:101720000000000000000000000000000012111086
:1017300000000000000000000000000000000000A9
:101740000000000000000048656174696E67204673
:1017500061696C65640048656174696E67206661E3
:10176000696C656400202D20496E76616C69642087
:101770006578747275646572206E756D626572202D
:10178000210A00544845524D414C2052554E415774
:10179000415900546865726D616C2052756E6177B5
:1017A0006179004572723A204D415854454D5000C0
:1017B0004D415854454D5020747269676765726594
:1017C00064004572723A204D494E54454D50004DCB
:1017D000494E54454D50207472696767657265645F
:1017E00000202F002042403A0020403A0070012C97
:1017F0000190012701B0012201C0011D01F0011873
:10180000011002130130020E01600209019002046E
:1018100001C002FF000003FA004003F5008003F05E
:1018200000D003EB002004E6007004E100E004DCDB
:10183000004005D700C005D2004006CD00D006C844
:10184000008007C3003008BE00F008B900C009B42A
:1018500000B00AAF00B00BAA00D00CA500000EA08B
:1018600000500F9B00C01096005012910000148C85
:1018700000C0158700B0178200B0197D00D01B781A
:1018800000001E730040206E0090226900F0246466
:101890000040275F0090295A00E02B5500102E5081
:1018A0000020304B0010324600E033410090353CC0
:1018B000001037370070383200A0392D00B03A28B8
:1018C00000A03B2300603C1E00103D1900903D1419
:1018D00000103E0F00703E0A00C03E0500003F00B1
:1018E00000403FFBFF803FF6FFC03FF1FF6F706598
:1018F0006E00545249474745524544007A5F6D692E
:101900006E00795F6D696E00785F6D696E0052657B
:10191000706F7274696E6720656E6473746F702087
:101920007374617475730A00486F6D696E67204641
:1019300061696C6564005761726E696E673A204830
:101940006F6D696E672042756D70204469766973AA
:101950006F72203C20310A000000484200004842DB
:10196000000080400202040000A0400000A04000EF
:1019700000004000005E430000614300007A430025
:1019800000000100000001000080005555550000D6
:1019900000400033333300AAAA2A004992240000F1
:1019A000002000C7711C0099991900D145170055F6
:1019B0005515003BB113002449120011111100000C
:1019C0000010000F0F0F00E3380E0043790D00CC1C
:1019D000CC0C00C3300C00E8A20B0064210B00AA61
:1019E000AA0A00703D0A009DD80900427B090092B6
:1019F000240900DCD3080088880800104208000091
:101A0000000800F0C10700878707007550070071C4
:101A10001C07003EEB0600A1BC06006990060066AC
:101A2000660600703E06006118060017F405007493
:101A3000D105005BB00500B290050062720500554B
:101A400055050078390500B81E0500050505004E4E
:101A5000EC040087D40400A1BD040090A704004951
:101A6000920400C17D0400EE690400C756040044DE
:101A70004404005C3204000821040041100400000A
:101A80000004003FF00300F8E0030026D20300C387
:101A9000C30300CCB503003AA803000A9B03003837
:101AA0008E0300C08103009F750300D069030050BE
:101AB0005E03001D53030034480300913D030033CF
:101AC00033030016290300381F0300971503003065
:101AD0000C0300030303000BFA020049F10200BAF1
:101AE000E802005CE002002DD802002DD00200596F
:101AF000C80200B0C0020031B90200DAB10200AA87
:101B0000AA0200A0A30200BC9C0200FA9502005C9D
:101B10008F0200DF88020082820200457C020027DB
:101B200076020027700200436A02007C640200D043
:101B30005E02003F590200C8530200FFFDFCFAF8A4
:101B4000F6F4F2F0EEECEAE9E7E5E3E1E0DEDCDA18
:101B5000D9D7D5D4D2D0CFCDCBCAC8C7C5C3C2C0C0
:101B6000BFBDBCBAB9B7B6B4B3B2B0AFADACAAA939
:101B7000A8A6A5A4A2A1A09E9D9C9A999897959489
:101B80009392908F8E8D8B8A8988878684838281B9
:101B9000807F7E7D7B7A79787776757473727170C9
:101BA0006F6E6D6C6B6A69686766656463626160BD
:101BB0005F5E5D5C5B5A59585857565554535251A5
:101BC00050504F4E4D4C4B4A4A4948474646454473
:101BD00043424241403F3E3E3D3C3B3B3A39383830
:101BE00037363535343332323130302F2E2E2D2CDE
:101BF0002B2B2A2929282727262525242323222180
:101C00002120201F1E1E1D1C1C1B1B1A1919181811
:101C1000171616151514131312121111100F0F0E9B
:101C20000E0D0D0C0C0B0A0A090908080707060619
:101C3000050504040303020201000020436F756ED2
:101C40007420583A004265640045310062656400C2
:101C50002C2073797374656D2073746F7070656474
:101C600021204865617465725F49443A2000002272
:101C70000A00556E6B6E6F776E20636F6D6D616ECF
:101C8000643A20220020453A00205A3A0020593A6E
:101C90000000688511241FBECFEFD1E2DEBFCDBFAB
:101CA00000E00CBF13E0A0E0B2E0EAEFF2E201E0F6
:101CB0000BBF02C007900D92A231B107D9F72EE0F9
:101CC000A2E1B3E001C01D92AE33B207E1F71EE01E
:101CD000CAE4DEE000E006C021970109802FFE0182
:101CE0000E942C8EC934D10780E00807A9F70E9412
:101CF00015820C947B910C9400002F923F924F928E
:101D00005F926F927F928F929F92AF92BF92CF928B
:101D1000DF92EF92FF920F931F93CF93DF93CDB794
:101D2000DEB7C555D1090FB6F894DEBF0FBECDBFE3
:101D3000209188032E962FAF2E9791E090938803E1
:101D4000809187038D3409F439C4843511F40C94DF
:101D5000DD1E873411F00C94F81E2091850330911C
:101D600086032531310511F40C94FA1E7CF42430DD
:101D700031053CF4223031050CF008C137FF2FC08B
:101D800019C42430310509F40FC114C42A353105B2
:101D900009F49BC34CF42C31310509F444C12E31B4
:101DA000310509F450C106C42B35310509F491C33E
:101DB0002C35310509F0FEC352E6252E52E0352EB2
:101DC00063E5E62E63E0F62E42E552E05FA74EA7FC
:101DD0007CEEC72E7DE0D72E00E010E0BAC38091E4
:101DE0008303813011F00C94FA1E0E945A3483E769
:101DF00093E00E948D758091640A83FD88C02091D4
:101E00005E0230915F0240916002509161026091E8
:101E10007F037091800380918103909182030E94DF
:101E2000B689882309F473C08091260481111EC0ED
:101E300020E030E0A90160912B0470912C04809186
:101E40002D0490912E040E94358E0E94A18F209126
:101E50003702309138026217730744F40E94AC6075
:101E60008FE09FE00E94996011E001C010E0209196
:101E70005E0230915F024091600250916102609178
:101E80007F037091800380918103909182030E946F
:101E9000348E6B017C0120E030E0A9010E94959016
:101EA00087FF04C0F7FAF094F7F8F094209133021A
:101EB000309134024091350250913602C701B6018B
:101EC0000E941C8A20E030E048E453E40E94959090
:101ED00018163CF40E94AC6080EF9EE00E9499606E
:101EE00002C01123A1F080917F0390918003A09103
:101EF0008103B091820380935E0290935F02A0936E
:101F00006002B09361028FE793E00E94767D2AE041
:101F100037ED43E25CE360912302709124028091EB
:101F20002502909126020E941C8A6B017C0160911F
:101F3000210270912202072E000C880B990B0E943F
:101F4000BD899B01AC01C701B6010E941C8A69834F
:101F50007A838B839C83C12CD12C76018E010F5FF9
:101F60001F4F2FE733E04BE753E067E773E083E76A
:101F700093E00E94B08180E1E3E7F3E0A2E5B2E004
:101F800001900D928A95E1F70C94FA1E80918303DB
:101F9000813011F00C94FA1E2230310509F080E0F6
:101FA0000E940C350C94FA1E80E50E944D34882363
:101FB00079F08091700390917103009749F04AE0A5
:101FC00050E060E070E00E9436886B017C0103C045
:101FD000C12CD12C760183E50E944D34882361F019
:101FE0000E94CD3320E030E04AE754E40E941C8A8E
:101FF0000E94A88F6B017C010E94667D0E947F6811
:10200000C60ED71EE81EF91E0E947F68DC01CB01B8
:102010008C199D09AE09BF09B7FD02C00C94FA1EC8
:102020000E945262F1CF80916F038770873011F068
:102030000C940F1F60E08FE40E94233A81110C94EE
:10204000FA1E0C940F1FC0905202D0905302E090E1
:102050005402F09055028090600390906103A0902C
:102060006203B090630388E50E944D34811107C07C
:10207000A5019401C701B6010E94358E02C00E94DD
:10208000CD332B013C016E8B7F8B888F998FC09055
:102090005602D0905702E0905802F090590280907A
:1020A000640390906503A0906603B090670389E590
:1020B0000E944D34811107C0A5019401C701B601EA
:1020C0000E94358E02C00E94CD334B015C016A8FA5
:1020D0007B8F8C8F9D8FBE01665E7F4FCE014696B3
:1020E0000E94D130882311F40C94FA1E0E94477686
:1020F00061E085E40E94233A382ECE0101962CE05F
:10210000DC011D922A95E9F749825A826B827C8212
:102110008D829E82AF82B886BE016B5F7F4F0E9428
:10212000D130882309F468C12091600330916103A4
:102130004091620350916303C301B2010E94348E47
:102140006AAB7BAB8CAB9DAB69837A838B839C83BF
:1021500020916403309165034091660350916703B9
:10216000C501B4010E94348E9B01AC016D837E8356
:102170008F839887E0905A02F0905B0200915C0296
:1021800010915D02E986FA860B871C8780912302F5
:1021900090912402A0912502B09126028EA79FA7BC
:1021A000A8ABB9AB85E595E5A5E0B3E48093230240
:1021B00090932402A0932502B09326021E8E1F8EB8
:1021C00018A219A2DE015E966D016AA97BA98CA9ED
:1021D0009DA90E94667681E00E94187B81110C9473
:1021E000102580916E0382FF13C020916803309107
:1021F000690340916A0350916B0360E070E080E0F6
:1022000090EC0E94348E6AAB7BAB8CAB9DAB08C06C
:1022100020E030E040E251EC2AAB3BAB4CAB5DAB95
:10222000C0906803D0906903E0906A03F0906B035C
:1022300020E030E0A901C701B6010E94B68987FFFE
:102240000BC0A701960160E070E080E791E40E9476
:10225000348E6B017C0106C0C12CD12CA0E7EA2E84
:10226000A1E4FA2EA701960160915A0270915B02D7
:1022700080915C0290915D020E9495901816ECF599
:10228000CAA6DBA6ECA6FDA6C12CD12CF0E8EF2E49
:10229000F0E4FF2ECEA2DFA2E8A6F9A6BE016A5D99
:1022A0007F4FCE018A960E94257710915F0310928E
:1022B0005F0382E00E9444770E94CC7712FF1DC02A
:1022C000CAA2DBA2ECA2FDA220E030E040EA50E48A
:1022D00060915A0270915B0280915C0290915D0264
:1022E0000E94358E6E8F7F8F88A399A3BE016E5D8D
:1022F0007F4FCE014E960E9425778AA99BA9ACA953
:10230000BDA98AA39BA3ACA3BDA380E090E0A0E0FD
:10231000B0E48E8F9F8FA8A3B9A3BE01625E7F4FEA
:10232000CE0182960E94257710915F0310925F0381
:1023300082E00E9444770E94CC7712FF1EC0C090BA
:102340005A02D0905B02E0905C02F0905D02209116
:1023500068033091690340916A0350916B0360E018
:1023600070E080E090E40E94348E9B01AC01C701D4
:10237000B6010E949590181634F4C12CD12CE0ECD3
:10238000EE2EEFE7FE2E2091680330916903409115
:102390006A0350916B03C701B6010E94358E7B0121
:1023A0008C019B01AC010E942791811108C091E032
:1023B000391205C00E94DD5681110C9410252EA5FE
:1023C0003FA548A959A920932302309324024093A2
:1023D0002502509326029701A801B701C8010E9467
:1023E0002791882369F00E94DD560E94A86088E545
:1023F00096E00E94996004C0E12CF12C00EC1FE7EC
:102400009701A801B701C8010E942791811157C007
:1024100020E030E0A901C301B2010E94B68987FF24
:1024200005C067E177EB81E598EB04C067E177EBE6
:1024300081E598E3A30192010E94358EAB01BC01B6
:1024400082E796E00E942C3B20E030E0A901C50124
:10245000B4010E94B68987FF05C067E177EB81E58B
:1024600098EB04C067E177EB81E598E3A50194015F
:102470000E94358EAB01BC018DE696E00E942C3B9C
:1024800020E030E0A901B701C8010E94B68987FFAA
:1024900005C067E177EB81E598EB04C067E177EB76
:1024A00081E598E39701A8010E94358EAB01BC013C
:1024B00088E696E00E942C3B8AE00E9492600E948F
:1024C0002E760E9437790C94FA1E109284030C9495
:1024D000FA1E8FE0809384030C94FA1E0E94CD3381
:1024E0002B013C01133049F0F601208131814281FA
:1024F00053810E94348E2B013C01AEA5BFA52D91C6
:102500003D914D915C91C301B2010E94348E4B010B
:102510005C012DEB37E346E855EB0E94959087FD73
:1025200020C02DEB37E346E855E3C501B4010E9416
:10253000B6891816B4F01F5FB4E0EB0EF11CEEA5DF
:10254000FFA53496FFA7EEA7F4E0CF0ED11C143000
:1025500039F1D1018D911D010E944D34882359F329
:10256000BDCF133051F440925E0250925F026092F0
:1025700060027092610201E0DECFA5019401F701D3
:1025800060817181828193810E94358ED7016D9324
:102590007D938D939C931397812F0E946D75CBCF64
:1025A000002321F08EE592E00E94767D0E9437792B
:1025B0000C94FA1E0E94A2810C94FA1E00918503CD
:1025C000109186030C38110509F4D7C40CF091C0A2
:1025D0000936110509F403C40CF04EC00D34110581
:1025E00009F41FC2DCF40F31110509F441C154F4A0
:1025F0000131110509F428C10231110509F423C57F
:102600000C94DA1E0B34110509F4F2C10CF0F4C17C
:102610000A32110509F4D3C10C94DA1E04351105F0
:1026200009F411C5DCF40235110509F4FEC40CF0FF
:1026300003C50135110511F00C94DA1E0E94A96C36
:102640000E940A520E949B7F1092150468EE73E06C
:1026500080E090E00E94FB3A0C94FA1E0C351105C4
:1026600009F440C50836110509F4DFC10535110527
:1026700011F00C94DA1E13C50137110509F456C484
:102680009CF40D36110509F4F2C13CF40B3611052A
:1026900009F4DDC30CF4B9C33CC40F36110509F4C9
:1026A000EFC30CF4DCC338C40637110509F416C6B1
:1026B0006CF40337110509F4A8C50CF49FC5053760
:1026C000110511F40C94FA1E0C94DA1E083711054A
:1026D00009F441C60CF43CC60937110511F00C94FD
:1026E000DA1E10926D0310926C030E94057A0C940E
:1026F000FA1E0D3221E0120711F40C94E31C0CF0C9
:1027000046C00C3C110509F4FAC6ECF40E3B110569
:1027100009F451C454F40639110509F424C60B39DF
:10272000110509F45CC40C94DA1E093C110509F486
:10273000A1C60B3C110509F4C3C6083C110511F0F4
:102740000C94DA1E4DC60C3D110511F40C94AA1B15
:1027500064F40E3C110509F419C70CF404C7033DD9
:10276000110509F431C70C94DA1E023E110511F46B
:102770000C94271C023241E0140711F40C94721CD3
:102780000D3D110511F00C94DA1E0C94D11B043F81
:1027900051E0150711F40C94161E7CF5013991E0F7
:1027A000190711F40C94A91D94F40F32B1E01B0722
:1027B00011F40C94A61D14F40C94621D0039114000
:1027C00011F00C94DA1E0E94667D0C94FA1E0A39F0
:1027D00021E0120709F4A7C30C3A31E0130711F402
:1027E0000C94AF1D0239114011F00C94DA1E0E94B6
:1027F000DD560E9437790C94FA1E083F51E0150708
:1028000011F40C94251E6CF4063F91E0190711F4A5
:102810000C94191E14F00C941C1E0E94E65F0C947C
:10282000FA1E0438B3E01B0711F40C94661E073E31
:10283000E3E01E0711F40C94CE1E0335134011F093
:102840000C94DA1E0C94351E80914F0384FF02C055
:102850000C9441208091510387FF02C00C944120C9
:1028600080915203837011F00C9441200C945E20EF
:102870000E9497517B018C0120E831E541E050E056
:102880000E94BD8DC9016DE671E00E94188E4B015A
:102890005C01C801B70120E13EE040E050E00E9449
:1028A000BD8DCA01B90128E130E040E050E00E944E
:1028B000BD8D762E672EC62ED72E4CE3242E312CBE
:1028C000412C512CC801B701A20191010E94BD8D7C
:1028D000F62EE72ECA01B901A20191010E94BD8D19
:1028E000CB018E010F5F1F4F8114910499F0EF927D
:1028F000FF927F936F936F927F92BF92AF929F925E
:102900008F9287E396E09F938F931F930F930E947C
:10291000878913C0A114B104B1F0EF92FF927F93A5
:102920006F936F927F92BF92AF928BE396E09F93EB
:102930008F931F930F930E9487890FB6F894DEBF81
:102940000FBECDBF30C0CD2879F0EF92FF927F93BC
:102950006F936F927F928FE396E09F938F931F9375
:102960000F930E948789E9CF892B69F0EF92FF923C
:102970007F936F9383E496E09F938F931F930F93BE
:102980000E948789DACFEF92FF9287E496E09F93C7
:102990008F931F930F930E9487890F900F900F9032
:1029A0000F900F900F900E94AC60B8018BE496E0FE
:1029B0000E94AE3B8AE00E9492600C94FA1E6DE089
:1029C00070E080E50E94103A8C0197FF02C00C94E1
:1029D000FA1EE82E60E089E40E94233A81110C94EB
:1029E0006820802F0E94306081114EC70C946820AF
:1029F0000E94E6510C94FA1E80914E03813011F032
:102A00000C94FA1E82E080934E030E947F686093CC
:102A10004A0370934B0380934C0390934D030C94A3
:102A2000FA1E0E940A520C94FA1E8091640A83FFD7
:102A300002C00C94FA1E0E94853B87FF02C00C94D2
:102A4000FA1E83E50E944D34882369F00E94CD333D
:102A50000E94A18FCB010E94D1690E945E6C8111FE
:102A600002C00E940A520E94BF7C0C94FA1E809100
:102A7000640A83FF02C00C94FA1E0E94853B8EAB51
:102A800087FF02C00C94FA1E83E50E944D348AAF82
:102A9000811106C082E50E944D34182F882381F0F1
:102AA0000E94CD330E94A18FCB010E94D1690E9468
:102AB0005E6C182F882311F40C94A5200E94E65117
:102AC0000E94BF7C112311F40C94FA1E20E030E028
:102AD000A90160912B0470912C0480912D04909198
:102AE0002E040E94358E6E8F7F8F88A399A310923B
:102AF000450380E090E0A0E8BFEB8E8B9F8BA88F12
:102B0000B98F81E0809320021EA61FA618AA19AAD9
:102B10001BAE1CAE1DAE1EAE10E024961FAE249759
:102B2000ECE32596EFAF2597FCE12996FFAF2997B7
:102B300026E42D962FAF2D9731E03FAF812C912CBD
:102B4000540160912F0470913004072E000C880B03
:102B5000990B0E94BD896B017C012E893F89488DAC
:102B6000598D0E94B6898823F9F020912B04309169
:102B70002C0440912D0450912E04CE8ADF8AE88ED9
:102B8000F98E8AAD811109C0C701B6010E94B689CC
:102B9000182F111F1127111F07C0C701B6010E946E
:102BA000B68987FD0CC110E00E947F686B017C0133
:102BB000DC01CB012BAD3CAD4DAD5EAD821B930B6B
:102BC000A40BB50BB7FD33C0D701C60188519C4F8C
:102BD000AF4FBF4F8BAF9CAFADAFBEAF8EA90E94C2
:102BE000176A82E196E00E94996081149104A10421
:102BF000B104B9F0D501C401805F984DAF4FBF4F0C
:102C0000BC01CD016C197D098E099F0928EE33E0C6
:102C100040E050E00E94BD8DCA01B9010E949A6156
:102C200003C08FE30E9492608AE00E9492600E943B
:102C300052620E947F6860934603709347038093BB
:102C400048039093490320E030E0A90160912B04F0
:102C500070912C0480912D0490912E040E94358E49
:102C600069837A838B839C8311110AC0AE014A5E0B
:102C70005F4FBE016F5F7F4FCE014E960E946B3A51
:102C800099819AAB2A803B800C81292F322D432DCC
:102C9000502F6E897F89888D998D0E94348E2B01EB
:102CA0003C0120E030E0A9010E94959087FF04C01C
:102CB00077FA709477F8709481149104A104B104A8
:102CC000B1F420E030E040E85FE3C301B2010E94CC
:102CD000B68987FF18C0AFAD46015701AA2399F006
:102CE000B0E18B0EB7E29B1EA11CB11C0CC020E012
:102CF00030E040E450E4C301B2010E949590181600
:102D000014F446015701112309F442C02EA53FA532
:102D100048A959A9211531054105510541F0D701AF
:102D2000C601821B930BA40BB50BB7FD31C02AA9BA
:102D3000322D432D502F24966FAD249725967FADCD
:102D4000259729968FAD29972D969FAD2D970E9497
:102D5000348E20E030E040EC5FE30E94B68987FDCE
:102D60002EC0D701C601805A9541AF4FBF4F8EA7E5
:102D70009FA7A8ABB9AB9AA924969FAF2497259695
:102D80002FAE259729963FAE29972D960FAF2D97F9
:102D900080912002882399F081149104A104B10448
:102DA00011F41FAECECEA0E1CA1AA7E2DA0AE108FA
:102DB000F108C818D908EA08FB08F7FCF2CF80919F
:102DC0002002882311F40C94FA1E8FEF89838A83E2
:102DD0008B83CE0101960E94383A0C94FA1E0E9411
:102DE000853B182F87FD0AC08EE792E00E9499600C
:102DF000812F0E94176A8AE00E9492602E96BFADD2
:102E00002E97B09388030C94222580E50E940E82B1
:102E100081110C94FA1E81E40E940434882321F06D
:102E200060911504062F02C00FEF10E083E50E94A9
:102E30004D34882349F00E9499338B016F3F71050F
:102E400019F010F00FEF10E000931504D3C780E5E0
:102E50000E940E828111CEC710921504CBC78EE45A
:102E60000E944D34882309F4C5C70E9499336093AA
:102E70004103709342038093430390934403BAC782
:102E800083E50E940434882329F083E50E940E82A2
:102E90008093640A0E94AC608BE096E00E94996087
:102EA0008091640A882369F13EE4E32E32E0F32E38
:102EB00000E010E020E08091640A90E0A0E0B0E043
:102EC000002E04C0B695A795979587950A94D2F7DA
:102ED00080FF0EC0DD24D394D20E222319F08CE2A1
:102EE0000E949260F701859194910E9499602D2D26
:102EF0000F5F1F4FE2E0EE0EF11C05301105D9F611
:102F000004C087E096E00E9499608AE00E94926087
:102F100071C7109220026EC741E060E070E089EF57
:102F200095E00E94B0600E94106064C783E50E9433
:102F30004D34882371F00E94A933282F30E02D33BF
:102F400031051CF480931F0255C78CE380931F0248
:102F500051C70E94AC60C0901F02D12CE12CF12C13
:102F600082EF95E00E9499604AE0C701B6010E9495
:102F70002D618AE00E9492603DC78091640A83FDC2
:102F800039C783E50E944D34882371F00E94CD3308
:102F90000E94A18F6C3871050CF48B0110933F03D4
:102FA00000933E030E94716C0E945E6C811122C7E7
:102FB0000E940A521FC78091640A83FD1BC783E5E4
:102FC0000E944D3424968FAF249781110C94AA202F
:102FD00082E50E944D3481110C94AA200BC783E531
:102FE0000E944D34882309F405C70E94A933182F85
:102FF00090E0CD970CF01CE3109335030E947F689E
:103000006B017C01212F30E0A8EEB3E00E94098E15
:10301000C60ED71EE81EF91EC0923103D0923203AD
:10302000E0923303F0923403E5C6809184038F7DF0
:10303000806180938403DEC6809184038F7E8062EA
:1030400080938403D7C683E50E944D34882399F08A
:103050000E94CD3320E030E04AE754E40E941C8A0D
:103060000E94A88F60931B0270931C0280931D0224
:1030700090931E02BFC680914F0384FF02C00C9440
:1030800099228091510387FF02C00C94992280916C
:103090005203837011F00C9499220C94CB2283E597
:1030A0000E940434882309F4A5C60E947F686093B7
:1030B00046037093470380934803909349030E940B
:1030C000CD3320E030E04AE754E40E941C8A0E949D
:1030D000A88F60932D0370932E0380932F039093FA
:1030E000300388C60E94853B87FD84C690914F03BC
:1030F00094FD04C09091510397FF0AC092E6C92E37
:1031000092E0D92E25E6E22E2AE0F22E10E009C048
:1031100090915203937091F7682F81E00E943D3B9C
:1031200069C6F60181916F010E944D34882309F42C
:103130005BC0133009F04FC00E94CD334B015C01DE
:1031400020E030E040EA51E40E94B68987FF3AC0AF
:10315000A50194016091850A7091860A8091870A81
:103160009091880A0E942F8F2B013C019B01AC019A
:103170006091950A7091960A8091970A9091980AA9
:103180000E941C8A6093950A7093960A8093970A0E
:103190009093980A6091090470910A0480910B043D
:1031A00090910C040E94BB89A30192010E941C8A89
:1031B0000E94A88F6093090470930A0480930B0403
:1031C00090930C048092850A9092860AA092870AB6
:1031D000B092880A09C00E94CD33D70154966D93EE
:1031E0007D938D939C9357971F5FB4E0EB0EF11C7A
:1031F000143009F096CF0E94FB7EFCC50E943D81F1
:1032000081E29EE00E94BD80F5C584E295E00E94C7
:10321000996060E084E195E00E947F3360E08FEF89
:1032200094E00E947F3361E088EF94E00E947F3356
:1032300061E08DEE94E00E947F3361E08DED94E0DB
:103240000E947F3360E084ED94E00E947F3361E070
:103250008AEC94E00E947F3360E080EC94E00E946E
:103260007F3361E088EB94E00E947F3360E08AEA7C
:1032700094E00E947F3360E08CE994E00E947F3309
:1032800060E08DE894E00E947F3360E08FE794E097
:103290000E947F3360E089E694E00E947F3360E023
:1032A00088E594E00E947F3360E089E494E00E9426
:1032B0007F3360E084E394E00E947F3361E081E249
:1032C00094E00E947F3360E084E194E00E947F33C9
:1032D00060E080E094E00E947F338CC500912B0376
:1032E00010912C0394E0F12C40E0915021F1F80171
:1032F0008081282F2B7F213421F421812133D9F49F
:1033000007C08035C1F4818180538A3048F013C0F2
:10331000813421F0853421F441E002C0FF24F3948C
:1033200098012E5F3F4F89012F5F3F4FF801808149
:103330008032C9F3DACF41110E94AC60FF2021F046
:103340008CEF93E00E949960C8010E94316252C5DF
:103350000E94E3794FC581E080936D0380936C03F5
:103360000E94057A47C582E40E940434882351F004
:103370008091700390917103892B31F00E94A933E1
:10338000182F03C010E001C01FEF85E50E94043430
:10339000882351F08091700390917103892B31F053
:1033A0000E94A933082F03C000E001C00FEF82E59F
:1033B0000E940434882349F0809170039091710336
:1033C000892B29F00E94A93303C080E001C08FEF50
:1033D00089830A831B83CE0101960E94383A0AC56D
:1033E0000E94853B182F87FD05C584E40E940434A4
:1033F0008823E9F10E94CD336B017C0101E020E0DC
:1034000030E0A9010E94B689811101C000E000935B
:103410002A0320E030E0A901C701B6010E94B68965
:10342000882329F124E01202F0011124EA5DFC4F07
:10343000C082D182E282F38220E030E0A901609173
:1034400026037091270380912803909129030E94FD
:10345000B68981110CC080E090E0A0EEBFE38093BC
:10346000260390932703A0932803B09329030E9477
:10347000D67FC0C40E94853B87FDBCC4B2E6EB2E5C
:10348000B2E0FB2E05E61AE085E7C82E8AE0D82ECA
:10349000D7018D917D010E940434882359F00E9448
:1034A000CD330E94A88FF801608371838283938358
:1034B0000E94EF7C0C5F1F4FC016D10649F79AC4DB
:1034C0000E94853B87FD96C4A2E6EA2EA2E0FA2E72
:1034D00005E61AE0D7018D917D010E94043488230E
:1034E00039F00E94CD33F80164A375A386A397A396
:1034F0000C5F1F4FFAE005371F0761F77BC480910F
:10350000500387FF02C00C94CE22809151038E702D
:1035100011F00C94CE224091990A50919A0A609130
:103520009B0A70919C0A8CEE93E00E942C3B409188
:103530009D0A50919E0A60919F0A7091A00A89EE9F
:1035400093E00E942C3B4091A10A5091A20A609105
:10355000A30A7091A40A86EE93E00E942C3B8AE0B5
:103560000E94926047C480914F0381FF02C00C9477
:1035700014238091500381FF02C00C941423809186
:1035800051038C7011F00C94142334C4FAE1EF2E23
:10359000F3E0FF2E10E088E5810F0E9404348823B9
:1035A00059F00E94CD33D7016D937D938D939C93F9
:1035B0001397812F0E946D751F5FB4E0EB0EF11C15
:1035C000133049F70C94D6124090EC0D5090ED0D4D
:1035D0006090EE0D7090EF0D209103023091040287
:1035E0004091050250910602C301B2010E94358E3E
:1035F0006EA77FA788AB99AB8090F00D9090F10DEE
:10360000A090F20DB090F30D2091070230910802C6
:103610004091090250910A02C501B4010E94358E01
:103620006AAB7BAB8CAB9DABC090F40DD090F50D2D
:10363000E090F60DF090F70D20910B0230910C0206
:1036400040910D0250910E02C701B6010E94358EC5
:103650006EAB7FAB88AF99AF20910F023091100213
:103660004091110250911202C301B2010E94358EA5
:103670002B013C012091130230911402409115025C
:1036800050911602C501B4010E94358E4B015C01B8
:1036900020911702309118024091190250911A029C
:1036A000C701B6010E94358E6B017C010E94AC609F
:1036B00087EB93E00E94996083E50E94043488239D
:1036C00021F00E94BD338093020280910202882380
:1036D00019F083E692E002C080E295E00E949960D2
:1036E0008FEA93E00E9499604EA55FA568A979A929
:1036F0008FE992E10E942C3B4AA95BA96CA97DA9A4
:1037000084EA93E00E942C3B4EA95FA968AD79AD95
:1037100085E893E00E942C3B8CE191E10E94996046
:1037200087EA93E00E949960B301A2018FE992E1D8
:103730000E942C3BB501A40184EA93E00E942C3B3B
:10374000B701A60185E893E00E942C3B8AE00E9425
:10375000926050C383E50E944D34882331F00E946B
:103760009933709322026093210280914F039091CC
:103770005003A0915103B0915203892B8A2B8B2BBC
:1037800009F038C3609121027091220280EA93E02F
:103790000E94783B85E20E9492608AE00E949260DB
:1037A00029C30E94853BF82E87FD24C383E50E9430
:1037B0004D340F2D0F2C000C110B882369F10E9442
:1037C0009933F801EE0FFF1FE050FE4F71836083C5
:1037D000000F111F000F111FF801ED5CFD4F7F015D
:1037E000072E000C880B990B0E94BD892AE037ED4B
:1037F00043E25CE30E941C8AF801EA5EFC4F2081F0
:103800003181428153810E941C8AD7016D937D933F
:103810008D939C931397EEC20E94AC6085E40E9446
:10382000926080E38F0D0E949260F801EE0FFF1FFF
:10383000E050FE4F6081718188E993E00E94783BFF
:1038400085E20E9492608AE00E949260D3C280E585
:103850000E940434882309F4CDC260E070E080E562
:103860000E94103AF82E6FEF7FEF83E50E94103A26
:103870008C010196039708F0BDC2F7FCBBC28F2DE7
:103880000E943060882339F00E94A86086E196E0AB
:103890000E949960AFC20E94667D60E08F2D0E94F9
:1038A00040670F3FBFEF1B0731F00130110571F08A
:1038B00000E010E00DC08F2D0E94E86631E020E0AE
:1038C000892B09F030E0032F122F02C001E010E035
:1038D0008F2D0E94E8668017910709F48BC20E9421
:1038E0005262F6CF8AE50E944D34811106C083E50D
:1038F0000E944D34882309F44BC00E94CD3320E050
:1039000030E040E050EC0E94B68987FD24C70E9459
:10391000CD3320E030E040E050E40E94959018164E
:103920000CF413C70E94CD336B017C0180916E03B0
:103930008695869580FF22C02091810A3091820A67
:103940004091830A5091840AC701B6010E941C8AE3
:103950000E94A18F2091890330918A03260F371F7F
:1039600030938A0320938903209114033091150327
:10397000620F731F709315036093140380E50E9418
:103980000434882309F4EDC60E94BD338111E9C6D1
:103990008091510387FD0BC780915203837009F01A
:1039A00006C70E94AC604091680350916903609122
:1039B0006A0370916B0389E793E00E942C3B8AE0D5
:1039C0000E94926017C285E40E940E82811173C02A
:1039D00080E50E940434882351F00E94CD33609327
:1039E000320470933304809334049093350489E453
:1039F0000E940434882381F00E94CD332CEA35ECF8
:103A000047E25EE30E941C8A609336047093370499
:103A1000809338049093390484E40E94043488230A
:103A200081F00E94CD332CEA35EC47E25EE30E9440
:103A30002F8F60933A0470933B0480933C049093DF
:103A40003D040E94AC604091320450913304609177
:103A500034047091350485E793E00E942C3B2CEAF6
:103A600035EC47E25EE36091360470913704809153
:103A70003804909139040E942F8FAB01BC0181E77B
:103A800093E00E942C3B2CEA35EC47E25EE3609128
:103A90003A0470913B0480913C0490913D040E9453
:103AA0001C8AAB01BC018DE693E00E942C3B8AE0AE
:103AB0000E9492609FC10E94A8608BE593E00E94E3
:103AC000996098C183E50E940434182F882371F00F
:103AD0000E94CD330E94A18F709338026093370209
:103AE00021E0672B09F020E02093260480E50E9466
:103AF0000434882359F02091370230913802232B67
:103B000011F00E94BD338093260474C1111172C15B
:103B10000E94AC6088E493E00E9499608091260442
:103B2000882319F08FEE98E102C08FE293E00E94A3
:103B30009960609137027091380287E393E00E94A8
:103B4000783B83E393E00E94996054C10E941F5226
:103B500051C181E00E94187B0E9437794BC190913E
:103B60006F0390FD02C087E001C086E091FD8D7F6C
:103B7000FE0131961F0192FF20C68B7F09F046C6D9
:103B80000FE312E022E532E03FA72EA79BE4C92E07
:103B900092E0D92E7F01F8016591759185919491FC
:103BA000AEA5BFA58D909D90AD90BD90BFA7AEA7CF
:103BB000A50194010E94348E2B013C01F701608322
:103BC00071838283938320E030E040EA51EC0E94CD
:103BD000959087FD0AC020E030E040EA51E4C3013F
:103BE000B2010E94B68918162CF4F60184911816B9
:103BF0000CF40FC6D7018D909D90AD90BD907D01C6
:103C000020E030E040EA51ECC501B4010E949590FB
:103C100087FD0AC620E030E040EA51E4C501B40166
:103C20000E94B68918160CF006C6FEC50E947B4C91
:103C3000E1C00E94FC56DEC061E083E50E94233AA9
:103C400091E089270E941158D5C0909313030E94D8
:103C5000225A10921303882309F4CCC00E94AC604E
:103C600084EF92E00E949960C5C08091510387FD66
:103C700007C680915203837009F002C64091600329
:103C800050916103609162037091630385EE92E04D
:103C90000E942C3B40916403509165036091660340
:103CA0007091670384EA93E00E942C3B4091680383
:103CB0005091690360916A0370916B0385E893E00A
:103CC0000E942C3B8AE00E94926094C0A0903E0427
:103CD000B0903F04C0904004D09041048BE40E9417
:103CE0004D34882339F10E94CD337B018C0120E0D3
:103CF00030E0A9010E94959087FD0AC020E030E0E5
:103D000040E251E4B701C8010E94B6891816A4F434
:103D10008FE30E9492608BE40E94926089E892E0B7
:103D20000E94996081E892E00E94996081EB90E1A5
:103D30000E949960750186019701A801B501C6012D
:103D40000E94B689882361F00E94667DC701D80170
:103D500080933E0490933F04A0934004B0934104A9
:103D600080914F0390915003A0915103B091520361
:103D7000892B8A2B8B2BF1F50E94AC6040913E047D
:103D800050913F0460914004709141048DE992E0AC
:103D90000E942C3B8AE00E9492602CC081E08093BC
:103DA000830360E083E50E94233A811123C00E94CF
:103DB0008A5620C00E94A2811DC0009185031091E7
:103DC00086030023B9F00E94AC6084E50E949260F3
:103DD000B8017727072E000C880B990B0E949A6177
:103DE00080E20E9492608BE593E00E94996002C09D
:103DF0000E94A281E0911203F0E0EF5CF14F80811C
:103E0000882339F08EE792E00E9499608AE00E9450
:103E100092602E96FFAD2E97F093880313C60E94F2
:103E2000667D0E94477681E080936D030E94057A4B
:103E300088E50E940434182F89E50E940434F82E86
:103E40008AE50E9404341F1104C1181711F0F12EE5
:103E500000C1FF24F39411E001E080E1E2E5F2E02B
:103E6000A3E7B3E001900D928A95E1F782E50E9405
:103E70004D34882369F00E94CD334B015C0120E072
:103E800030E0A9010E94B689882309F43EC006C02B
:103E9000812C912CB0EAAB2EB0E4BB2E111102C0E4
:103EA000FF20E9F180916E0382FD09C060915A0202
:103EB00070915B0280915C0290915D0203C060E0B2
:103EC00070E0CB01A50194010E94358E60937B03C5
:103ED00070937C0380937D0390937E0320915A021C
:103EE00030915B0240915C0250915D020E9495907E
:103EF00018165CF419821A821B821C82BE016F5F45
:103F00007F4F8BE793E00E942577112319F080E023
:103F10000E940E78FF2019F081E00E940E780023A5
:103F200009F48CC080916E038370833029F00E9465
:103F3000AC608CE896E080C00E94CC7780915A02F9
:103F400090915B02A0915C02B0915D028EA79FA749
:103F5000A8ABB9AB2091600330916103409162033B
:103F60005091630360E070E08CED92E40E94348E27
:103F70004B015C016093730370937403809375032A
:103F8000909376032091640330916503409166031A
:103F90005091670360E070E08CED92E40E94348EF3
:103FA0002B013C016093770370937803809379032E
:103FB00090937A03209168033091690340916A03DA
:103FC00050916B036EA57FA588A999A90E94348E94
:103FD00060937B0370937C0380937D0390937E03B7
:103FE00022ED30E040EA50ECC301B2010E9495900E
:103FF00087FD1EC027E030E04CE553E4C301B20169
:104000000E94B6891816A4F023EA31E040E050EC93
:10401000C501B4010E94959087FD0AC027E030E0F9
:104020004CE553E4C501B4010E94B68918169CF40E
:104030000E94AC608AE796E00E9499600E94CC776B
:1040400080916C0380936D030E942E760E943779D5
:10405000D1CE082F02CF19821A821B821C829E01A8
:104060002F5F3F4F6901EEA4FFA408A919A9A3017E
:104070009201C501B4010E94667682E00E940E782A
:10408000DDCF88E50E94043481115F9889E50E94A4
:10409000043481118A988AE50E940434882331F01F
:1040A00080910801817080930601479885E40E9401
:1040B0000434882309F49ECE12989CCE5F988A9887
:1040C000809108018170809306014798129892CEE2
:1040D0008DE40E944D348823D9F00E94A9338130A9
:1040E00069F038F0823079F462E0802F0E944067F6
:1040F00081CE60E0802F0E9440677CCE61E0802FFF
:104100000E94406777CE85E296E00E94996072CE69
:1041100083E50E944D34882309F46CCE0E94A933B4
:10412000F82EB9E0EB1203C08093150463CE61E072
:10413000802F0E9440676F2D802F0E9411676F2D86
:1041400070E0802F0E947C6755CE0E940A5211E0D9
:104150000C9460150E94CD330E94A18F6C387105BC
:104160000CF0E4C170933F0360933E030E94716CB6
:104170000E945E6C81110E94E65120913A033091B9
:104180003B0340913C0350913D0328962CAF3DAF3B
:104190004EAF5FAF289781E0809320028FE7809336
:1041A0004503E12CF12C00E81FEB23961CAE1DAE5D
:1041B0001EAE1FAE23972C961CAE1DAE1EAE1FAEBC
:1041C0002C971BAE63961FAE63973CE364963FAF9C
:1041D00064974CE165964FAF659756E466965FAF7E
:1041E000669781E02D968FAF2D97812C912C5401ED
:1041F00060913E0370913F03072E000C880B990BD2
:104200000E94BD891B018EA79AAB9701A8010E944D
:10421000B6898823F1F020913A0330913B03409115
:104220003C0350913D0324969FAD2497B1018EA588
:10423000911108C09AA90E94B689881F8827881FF3
:104240008BAF0AC09AA90E94B68987FDD3CD1BAE59
:1042500003C017010EA71AAB0E947F686B017C0197
:10426000DC01CB012C962CAD3DAD4EAD5FAD2C9756
:10427000821B930BA40BB50BB7FD35C0D701C6014C
:1042800088519C4FAF4FBF4F2C968CAF9DAFAEAFB8
:10429000BFAF2C9780E00E94176A82E196E00E94EF
:1042A000996081149104A104B104B9F0D501C4014D
:1042B000805F984DAF4FBF4FBC01CD016C197D0998
:1042C0008E099F0928EE33E040E050E00E94BD8D4A
:1042D000CA01B9010E949A6103C08FE30E949260F3
:1042E0008AE00E9492600E9452620E947F686093FE
:1042F000460370934703809348039093490390913A
:104300003A039EABA0913B03AAAF00913C031091EE
:104310003D03BBADB1115FC0B1018EA59AA90E944A
:10432000A18F62966CAF7DAF8EAF9FAF62972896DC
:104330006CAD7DAD8EAD9FAD28970E94A18F2B01F6
:104340003C012EA93AADA80128966CAD7DAD8EAD8D
:104350009FAD28970E949590181684F091014EA564
:104360005AA96EA97AADC8010E94959018164CF012
:104370006EA97AADC8010E94A18F09C0C301B20124
:1043800006C062966CAD7DAD8EAD9FAD62979B0110
:10439000AC012419350946095709AFEFB0E00E9476
:1043A000FE8D62962CAD3DAD4EAD5FAD629724198A
:1043B0003509460957090E94DF8D80914503821710
:1043C00051F02093450329831A82EFEFEB83CE014E
:1043D00001960E94383A2EA93AADA801B1018EA5E6
:1043E0009AA90E94348E2B013C0120E030E0A90103
:1043F0000E94959087FF04C077FA709477F87094C4
:1044000081149104A104B104C1F420E030E040E83B
:104410005FE3C301B2010E94B68987FF1AC02D96DF
:10442000FFAD2D9746015701FF2399F020E1820E41
:1044300027E2921EA11CB11C0CC020E030E040E439
:1044400050E4C301B2010E949590181614F446017D
:1044500057013BAD332309F44BC023968CAD9DAD82
:10446000AEADBFAD2397892B8A2B8B2B71F0D70173
:10447000C60123962CAD3DAD4EAD5FAD2397821B9B
:10448000930BA40BB50BB7FD33C02EA93AADA80111
:1044900063966FAD639764967FAD649765968FADB5
:1044A000659766969FAD66970E94348E20E030E057
:1044B00040EC5FE30E94B68987FD9CCCD701C60122
:1044C000805A9541AF4FBF4F23968CAF9DAFAEAF93
:1044D000BFAF23979EA963969FAF6397AAAD6496DB
:1044E000AFAF649765960FAF659766961FAF6697F7
:1044F00080912002882309F47DCC81149104A104C9
:10450000B10439F42D961FAE2D9771010EA51AA98D
:104510006FCEB0E1CB1AB7E2DB0AE108F108C818A8
:10452000D908EA08FB08F7FCEDCF64CC6CE870E032
:1045300019CE0E94667D88E50E940434882331F0FC
:104540005F9A80916E038E7F80936E0389E50E944F
:104550000434882331F08A9A80916E038D7F809392
:104560006E038AE50E940434882361F0809108017B
:104570008095817080930601479A80916E038B7FAE
:1045800080936E0385E40E940434882309F432CCBE
:104590000E94F45F2FCC0E949B7F2CCC83E50E946D
:1045A0004D34882391F00E94CD336093990A709323
:1045B0009A0A80939B0A90939C0A6093A10A709335
:1045C000A20A8093A30A9093A40A80E50E944D3426
:1045D000882351F00E94CD336093990A70939A0A10
:1045E00080939B0A90939C0A82E50E944D34882315
:1045F00051F00E94CD3360939D0A70939E0A809380
:104600009F0A9093A00A84E50E944D34882309F400
:10461000F1CB0E94CD336093A10A7093A20A8093DC
:10462000A30A9093A40AE6CB82E40E940434882370
:10463000C1F08091700390917103009739F04AE0C6
:1046400050E060E070E00E94368803C060E070E0F7
:10465000CB016093750A7093760A8093770A9093E2
:10466000780A83E50E940434882351F00E94CD33F8
:104670006093A50A7093A60A8093A70A9093A80A4C
:1046800084E50E940434882351F00E94CD33609366
:10469000A90A7093AA0A8093AB0A9093AC0A8AE4A1
:1046A0000E940434882309F4A5CB0E94CD336B010A
:1046B0007C012AE037ED43E25CE30E94959087FDA0
:1046C0003DC02AE939E949E95EE3C701B6010E9424
:1046D000B68918169CF1C092F903D092FA03E092C1
:1046E000FB03F092FC036091710A7091720A809151
:1046F000730A9091740A0E94BB894B015C0123EFFD
:1047000034E045E35FE3C701B6010E941C8A9B01C8
:10471000AC01C501B4010E941C8A29E732E84AE5D0
:1047200050E40E941C8A0E94E390609311047093ED
:10473000120480931304909314045CCB0E94A8602D
:1047400087EC93E00E94996055CBC12CD12CE12CD1
:1047500030E4F32EEBC8C12CD12CE12C20ECF22E4E
:10476000E5C8A70196016091680370916903809183
:104770006A0390916B030E94358E60936803709377
:10478000690380936A0390936B030E94AC6040912D
:1047900068035091690360916A0370916B0388E824
:1047A00093E00E942C3B8AE00E949260F1C882E56F
:1047B0000E9404348111F5C81DCB25EF32E081FF42
:1047C00003C047EF52E002C041E153E080FF03C065
:1047D00089EF92E002C081E193E03F932F935F93D2
:1047E0004F939F938F938FEF92E09F938F933F927E
:1047F0002F920E9487890E94AC60C1010E943162A1
:104800000FB6F894DEBF0FBECDBFF4CA21E133E08E
:10481000D6CFB7FAB094B7F8B094D7018D929D92E5
:10482000AD92BC921397E6C90E94A86081E193E023
:104830000E949960DFCA0C5F1F4FBFEFCB1ADB0AE3
:10484000EBE4F2E0E017F10709F0A5C98AE1E82EF0
:1048500083E0F82E10E0F10181919191A191B19145
:104860001F01F70181939193A193B1937F01812F50
:104870000E946D751F5F133071F70E943779BACAB5
:10488000F0916003FEA780906103709062036090D6
:10489000630350906403409065033090660320905A
:1048A0006703C0906803D0906903E0906A03F090BA
:1048B0006B0388E50E944D34882361F10E94CD335B
:1048C0005B018C0120E030E04CE553EC0E949590B8
:1048D00087FD0AC020E030E04CE553E4B501C80193
:1048E0000E94B689181694F46CED70E082ED92E0A7
:1048F0000E94783B6CED70E08DEC92E00E94783B7A
:1049000083EE93E00E94996010E005C0AEA68B2C68
:10491000702E612E11E089E50E944D34882381F1CB
:104920000E94CD33962EA72EB82E092F20E030E01E
:104930004CE553EC0E94959087FD0CC020E030E0E0
:104940004CE553E4692D7A2D8B2D902F0E94B6896A
:10495000181694F46CED70E08AEB92E00E94783BBC
:104960006CED70E08DEC92E00E94783B83EE93E07A
:104970000E94996010E004C0592C4A2C3B2C202E38
:104980008AE50E944D34882339F10E94CD336B01B2
:104990007C0120E030E040EA51EC0E94959087FDD8
:1049A0000AC020E030E040EA51E4C701B6010E94AD
:1049B000B68918168CF46CEE7FEF88EA92E00E94BC
:1049C000783B64E170E08DEC92E00E94783B83EEEE
:1049D00093E00E9499600ECA112309F40BCA8EA5B8
:1049E000982DA72DB62D8093600390936103A0931B
:1049F0006203B0936303852D942DA32DB22D809374
:104A0000640390936503A0936603B0936703C09219
:104A10006803D0926903E0926A03F0926B03EAC9DB
:104A20002EA53FA548A959A920932302309324021B
:104A30004093250250932602E12CF12C00EC1FE755
:104A40000C94F311CB5ADF4F0FB6F894DEBF0FBEB4
:104A5000CDBFDF91CF911F910F91FF90EF90DF902D
:104A6000CF90BF90AF909F908F907F906F905F900E
:104A70004F903F902F9008952F923F924F925F92C8
:104A80006F927F928F929F92AF92BF92CF92DF925E
:104A9000EF92FF920F931F93CF93DF93CDB7DEB7C3
:104AA00064970FB6F894DEBF0FBECDBF8FEF9FEFB8
:104AB00090938900809388000AE00983212C312C8F
:104AC00078948091DB039091DC03A091DD03B09199
:104AD000DE03892B8A2B8B2B71F080912F02909112
:104AE0003002A0913102B0913202892B8A2B8B2B9C
:104AF00009F082C2DFC18091CA0D8823D1F01092E3
:104B0000CA0D8091C80D9091C90D892B31F3109277
:104B100093031092C90D1092C80D9091FB0D8091D6
:104B2000FC0D9817D1F28091FC0D8F5F8F708093F0
:104B3000FC0D8091C80D9091C90D892B71F24091A7
:104B4000D7035091D8036091D9037091DA03809113
:104B5000D3039091D403A091D503B091D6030091D3
:104B6000C90310E020E030E0841B950BA60BB70BC7
:104B7000081719072A073B0710F4D901C801E82FC5
:104B8000840F951FA61FB71F8093D7039093D80358
:104B9000A093D903B093DA031C8A1B8AF1E0009139
:104BA0009E0310919F032091A0033091A103809157
:104BB000AE039091AF03A091B003B091B103080F81
:104BC000191F2A1F3B1F0093AE031093AF032093BE
:104BD000B0033093B10337FD31C080918B03082EB1
:104BE000000C990BAA0BBB0B4091D70D5091D80D1F
:104BF0006091D90D7091DA0D840F951FA61FB71F14
:104C00008093D70D9093D80DA093D90DB093DA0D62
:104C100080919A0390919B03A0919C03B0919D0376
:104C2000B901A801481B590B6A0B7B0B4093AE03DB
:104C30005093AF036093B0037093B1034091A2030C
:104C40005091A3036091A4037091A5038091B203D6
:104C50009091B303A091B403B091B503480F591FCD
:104C60006A1F7B1F4093B2035093B3036093B40356
:104C70007093B50377FD31C080918C03082E000C32
:104C8000990BAA0BBB0BC090DB0DD090DC0DE09014
:104C9000DD0DF090DE0D8C0D9D1DAE1DBF1D8093B2
:104CA000DB0D9093DC0DA093DD0DB093DE0D8091B4
:104CB0009A0390919B03A0919C03B0919D034A019C
:104CC0005B01881A990AAA0ABB0A8092B2039092E1
:104CD000B303A092B403B092B503C090A603D090E2
:104CE000A703E090A803F090A9038091B6039091E8
:104CF000B703A091B803B091B9038C0D9D1DAE1DF3
:104D0000BF1D8093B6039093B703A093B803B093ED
:104D1000B903B7FD31C0C0908D030C2C000CDD0829
:104D2000EE08FF088090DF0D9090E00DA090E10D5F
:104D3000B090E20DC80CD91CEA1CFB1CC092DF0D20
:104D4000D092E00DE092E10DF092E20DC0909A0356
:104D5000D0909B03E0909C03F0909D034C015D017B
:104D60008C189D08AE08BF088092B6039092B703D6
:104D7000A092B803B092B9038090BA039090BB039D
:104D8000A090BC03B090BD03C090AA03D090AB0329
:104D9000E090AC03F090AD03C80CD91CEA1CFB1CDE
:104DA000C092BA03D092BB03E092BC03F092BD0361
:104DB000F7FC3AC080908E03082C000C9908AA08D2
:104DC000BB084090E30D5090E40D6090E50D7090AD
:104DD000E60D840C951CA61CB71C8092E30D9092E6
:104DE000E40DA092E50DB092E60D80909A039090AC
:104DF0009B03A0909C03B0909D03C818D908EA08B3
:104E0000FB08C092BA03D092BB03E092BC03F092BD
:104E1000BD03E090DD0BF090C803E3FE02C0FA94FE
:104E200001C0F394F092C803F1110CC0E09084002B
:104E3000F0908500AB88BC88EA18FB08F2E0EF161A
:104E4000F104A0F337FF889A77FF8E9AB7FD07C069
:104E5000F0910B01F095F870F0930901419A809060
:104E60008400909085009C8A8B8AE0908400F0906A
:104E70008500AB88BC88EA18FB08F2E0EF16F10465
:104E8000A0F337FF889877FF8E98B7FD06C0809112
:104E90000B018870809309014198EE2331F08090D6
:104EA0008400909085009C8A8B8AE150F0E009F0A4
:104EB00076CE13CE8091C703882309F454C0809026
:104EC000D7039090D803A090D903B090DA03C09094
:104ED000C303D090C403E090C503F090C603409193
:104EE000C803C814D904EA04FB0480F48091940335
:104EF00090919503209198033091990328173907D1
:104F000028F441504093C803019714C08C149D04A9
:104F1000AE04BF04E0F48091940390919503209136
:104F20009603309197038217930788F44F5F40935D
:104F3000C8030196909395038093940340912B02AC
:104F400050912C0260912D0270912E020FC0AA2464
:104F5000AA94BA2C6501A0922B02B0922C02C092A6
:104F60002D02D0922E024FEF5FEFBA018091C8035D
:104F700087FD05C0169A80E090E021E01FC01698DA
:104F8000FACF222301F1149A809184009091850038
:104F90002091C80327FF21C02F5F2093C8032091D1
:104FA000840030918500281B390B22303105B8F37D
:104FB00014982091C803211112C020E03091C80339
:104FC0003111DFCF11C02091840030918500281B62
:104FD000390B22303105B8F3D6CF2150DECF809186
:104FE000840090918500E9CF40932F0250933002C6
:104FF00060933102709332028091DB039091DC0365
:10500000A091DD03B091DE03892B8A2B8B2B11F04D
:105010000C94922EA091C80DB091C90D109711F467
:105020000C94B1308090D7039090D803A090D9030E
:10503000B090DA034091D3035091D4036091D5032B
:105040007091D60384169506A606B706D8F010927E
:1050500093031092C90D1092C80D9091FB0D809191
:10506000FC0D981711F40C94B1308091FC0D8F5FFA
:105070008F708093FC0D00EDC02E07E0D02EE12C48
:10508000F12C2CC44091CF035091D0036091D103F7
:105090007091D203481559056A057B0508F4A7C12C
:1050A0004091CB035091CC036091CD037091CE031E
:1050B000D5960D911D912D913C91D8974017510790
:1050C0006207730708F074C1411551056105710548
:1050D00049F480908F0390909003A0909103B0903A
:1050E00092036CC1F12C0A81842E952F862F1B818F
:1050F000FE81EF8138852985BC80CD80E091C40D8B
:10510000E89DC12CFF273091C50D389DC00CF11DC5
:105110001090C60D189CF00DE99FC00CF11D399F31
:10512000F00DE89FF00D1C2DBF2E1C9DE12D3327A7
:1051300022271F9FE00D311D2F1DBC9CE00D311D4E
:105140002F1DBF9E300D211D132FB22E1C9D012D32
:10515000332722271F9F000D311D2F1DBC9C000DE2
:10516000311D2F1DBF9E300D211D132FB22EEE2796
:1051700080908F0390919003809191030090630B36
:105180000F2809F484C030915F0B319FE1198F081B
:105190009F098F092091600B219FE01981089F09C9
:1051A0008F090091610B019F801891098F093B9D28
:1051B000E01981089F098F092B9D801891098F099B
:1051C0000B9D901981091C9D012D332722271F9FBC
:1051D000000D311D2F1DBC9C000D311D2F1DBF9ECC
:1051E000300D211D132FB22E30915B0B319FE10D3D
:1051F0008F1C9F1D8F1D20915C0B219FE00D811C3A
:105200009F1D8F1D00915D0B019F800C911D8F1DB7
:105210003B9DE00D811C9F1D8F1D2B9D800C911DC2
:105220008F1D0B9D900D811D1C9D012D3327222765
:105230001F9F000D311D2F1DBC9C000D311D2F1D0A
:10524000BF9E300D211D132FB22E3091570B319F71
:10525000E1198F089F098F092091580B219FE019B0
:1052600081089F098F090091590B019F80189109AE
:105270008F093B9DE01981089F098F092B9D80189C
:1052800091098F090B9D901981090C94C9293091BE
:105290005F0B319FE10D8F1C9F1D8F1D2091600BB7
:1052A000219FE00D811C9F1D8F1D0091610B019FAF
:1052B000800C911D8F1D3B9DE00D811C9F1D8F1D3E
:1052C0002B9D800C911D8F1D0B9D900D811D1C9D94
:1052D000012D332722271F9F000D311D2F1DBC9C40
:1052E000000D311D2F1DBF9E300D211D132FB22E1D
:1052F00030915B0B319FE1198F089F098F09209135
:105300005C0B219FE01981089F098F0900915D0BBB
:10531000019F801891098F093B9DE01981089F0921
:105320008F092B9D801891098F090B9D9019810978
:105330001C9D012D332722271F9F000D311D2F1D7E
:10534000BC9C000D311D2F1DBF9E300D211D132F44
:10535000B22E3091570B319FE10D8F1C9F1D8F1D79
:105360002091580B219FE00D811C9F1D8F1D0091E6
:10537000590B019F800C911D8F1D3B9DE00D811CE1
:105380009F1D8F1D2B9D800C911D8F1D0B9D900DC2
:10539000811D1124CD82BC820A831B83FE83EF838F
:1053A00038872987912C992AA12CB12CA82A06C0CC
:1053B000D1968D909D90AD90BC90D4970090CA03EB
:1053C00004C0880C991CAA1CBB1C0A94D2F78BE958
:1053D0009EE001E00A8BFC01059115912591349125
:1053E000081519052A053B0508F413C51FC540908B
:1053F000C3035090C4036090C5037090C603481463
:1054000059046A047B0408F0CFC18091C203811162
:1054100020C0FD01EF5BFF4FE080F180028113812E
:1054200078962081318142815381D1966D917D9111
:105430008D919C91D4970E94967A31E03093C2036B
:10544000E091C80DF091C90D81A992A9A3A9B4A9B1
:1054500092C14091BE035091BF036091C00370910F
:10546000C103D9960D911D912D913C91DC97401768
:1054700051076207730708F077C1411551056105AF
:10548000710549F440918F0350919003609191030D
:105490007091920366C1F0E0EA85842F252F962F44
:1054A000BB85AC857D856E855F854889398950913E
:1054B000C40D589F712D66274091C50D489F700DF2
:1054C000611D1090C60D189E600D529F700D611DDC
:1054D000429F600D599F600DB72FA62FB79F512D8A
:1054E00044273327B69F500D411D3F1FA79F500DE6
:1054F000411D3F1FA69F400D311DB42FA32FB79F05
:10550000E12D44273327B69FE00D411D3F1FA79F84
:10551000E00D411D3F1FA69F400D311DB42FA32F4D
:10552000552780918F0320919003909191030090D3
:10553000630B0F2A09F484C040915F0B4B9F5119F4
:105540008F0B2F0B9F0B3091600B3B9F50198109E4
:105550002F0B9F0BE091610BEB9F801921099F0B93
:105560004A9F501981092F0B9F0B3A9F80192109DF
:105570009F0BEA9F20199109B79FE12D44273327FC
:10558000B69FE00D411D3F1FA79FE00D411D3F1F2E
:10559000A69F400D311DB42FA32F40915B0B4B9F55
:1055A000510D8F1F2F1F9F1F30915C0B3B9F500D84
:1055B000811D2F1F9F1FE0915D0BEB9F800D211D13
:1055C0009F1F4A9F500D811D2F1F9F1F3A9F800DC7
:1055D000211D9F1FEA9F200D911DB79FE12D44279C
:1055E0003327B69FE00D411D3F1FA79FE00D411DD2
:1055F0003F1FA69F400D311DB42FA32F4091570B85
:105600004B9F51198F0B2F0B9F0B3091580B3B9FCA
:10561000501981092F0B9F0BE091590BEB9F8019BB
:1056200021099F0B4A9F501981092F0B9F0B3A9F0D
:10563000801921099F0BEA9F201991090C94A22B34
:1056400040915F0B4B9F510D8F1F2F1F9F1F30915C
:10565000600B3B9F500D811D2F1F9F1FE091610B21
:10566000EB9F800D211D9F1F4A9F500D811D2F1FF5
:105670009F1F3A9F800D211D9F1FEA9F200D911DA6
:10568000B79FE12D44273327B69FE00D411D3F1FF3
:10569000A79FE00D411D3F1FA69F400D311DB42F58
:1056A000A32F40915B0B4B9F51198F0B2F0B9F0B1F
:1056B00030915C0B3B9F501981092F0B9F0BE091A0
:1056C0005D0BEB9F801921099F0B4A9F501981099F
:1056D0002F0B9F0B3A9F801921099F0BEA9F2019DE
:1056E0009109B79FE12D44273327B69FE00D411D57
:1056F0003F1FA79FE00D411D3F1FA69F400D311D7D
:10570000B42FA32F4091570B4B9F510D8F1F2F1F6D
:105710009F1F3091580B3B9F500D811D2F1F9F1FC6
:10572000E091590BEB9F800D211D9F1F4A9F500D4B
:10573000811D2F1F9F1F3A9F800D211D9F1FEA9FD4
:10574000200D911D1124EA87BB87AC877D876E876A
:105750005F87488B398B482F50E0522B60E070E018
:10576000692BDB01CA0107C0A75ABF4F8D919D91DC
:105770000D90BC91A02D0090CA0304C0880F991F02
:10578000AA1FBB1F0A94D2F72BE93EE041E04A8BE7
:10579000F9014591559165917491481759076A0728
:1057A0007B0708F4CCC3DAC38091C8038823E1F0F7
:1057B000FD01E95BFF4F4081518160E070E00091A5
:1057C0002B0210912C0220912D0230912E024017B5
:1057D00051076207730741F010922F0210923002B6
:1057E0001092310210923202409127025091280209
:1057F0006091290270912A0277FF68C0AF5ABF4FAB
:10580000CD90DD90ED90FC900090CA0304C0CC0CCC
:10581000DD1CEE1CFF1C0A94D2F78BE99EE021E010
:10582000FC0145915591659174914C155D056E058E
:105830007F0550F4F694E794D794C794220F04960A
:10584000AEE0873B9A0761F72093C903B0E2CB161D
:10585000D104E104F10428F480E2C82ED12CE12C1B
:10586000F12C80E2C81AD108E108F108C11498E0CF
:10587000D906E104F10408F42DC4A4E0DA9EC001C5
:1058800011248556954FFC01329625913491BC2DFB
:105890006627B39FA001B29F410D561F0694461F75
:1058A000561F112460E070E0FC0125913491C9017C
:1058B000A0E0B0E0841B950BA60BB70B80932702EA
:1058C00090932802A0932902B0932A02C090270245
:1058D000D0902802E0902902F0902A028091C80D11
:1058E0009091C90D892B09F015C20E9425759093DE
:1058F000C90D8093C80D892B09F40CC2E091C80D25
:10590000F091C90D808183FF3EC0858D968DA78D56
:10591000B0A1418D528D638D748D058916892789BB
:10592000308D0093D70D1093D80D2093D90D30935F
:10593000DA0D4093DB0D5093DC0D6093DD0D709319
:10594000DE0D8093DF0D9093E00DA093E10DB093F9
:10595000E20D81A192A1A3A1B4A18093E30D909344
:10596000E40DA093E50DB093E60D9091FB0D8091B1
:10597000FC0D981709F4B9CF8091FC0D8F5F8F70E3
:105980008093FC0DB2CF85889688A788B08C81E083
:1059900081149104A104B10409F480E0C18CD28C7B
:1059A000E38CF48CC114D104E104F10409F08260A9
:1059B000058D168D278D30A10115110521053105A5
:1059C00009F08460809393031092BE031092BF038A
:1059D0001092C0031092C1031092CB031092CC031B
:1059E0001092CD031092CE03DF01AF5ABF4F4D91FD
:1059F0005D916D917C9180E043329CE25907610595
:105A0000710560F4440F551F661F771F4332ACE2E7
:105A10005A076105710510F48F5FEECF8093CA03BA
:105A2000482F50E05C8B4B8B45A156A167A170A518
:105A3000082E04C0440F551F661F771F0A94D2F723
:105A40004093D3035093D4036093D5037093D6034C
:105A5000442455243201441A550A660A770A4092B2
:105A6000AE035092AF036092B0037092B1034092C4
:105A7000B2035092B3036092B4037092B5034092A4
:105A8000B6035092B7036092B8037092B903409284
:105A9000BA035092BB036092BC037092BD0341A055
:105AA00052A063A074A0440C551C661C771C880C83
:105AB000991CAA1CBB1C80929E0390929F03A092EB
:105AC000A003B092A103CC0CDD1CEE1CFF1CC09205
:105AD000A203D092A303E092A403F092A503000FC7
